{
  "abi": [
    {
      "inputs": [],
      "stateMutability": "nonpayable",
      "type": "constructor"
    },
    {
      "anonymous": false,
      "inputs": [
        {
          "indexed": true,
          "internalType": "address",
          "name": "previousOwner",
          "type": "address"
        },
        {
          "indexed": true,
          "internalType": "address",
          "name": "newOwner",
          "type": "address"
        }
      ],
      "name": "OwnershipTransferred",
      "type": "event"
    },
    {
      "anonymous": false,
      "inputs": [
        {
          "indexed": true,
          "internalType": "uint32",
          "name": "requestId",
          "type": "uint32"
        },
        {
          "indexed": false,
          "internalType": "uint256",
          "name": "randomNumber",
          "type": "uint256"
        }
      ],
      "name": "RandomNumberCompleted",
      "type": "event"
    },
    {
      "anonymous": false,
      "inputs": [
        {
          "indexed": true,
          "internalType": "uint32",
          "name": "requestId",
          "type": "uint32"
        },
        {
          "indexed": true,
          "internalType": "address",
          "name": "sender",
          "type": "address"
        }
      ],
      "name": "RandomNumberRequested",
      "type": "event"
    },
    {
      "inputs": [],
      "name": "blockHeaderContract",
      "outputs": [
        {
          "internalType": "contract IBlockHeaderPrecompiledContract",
          "name": "",
          "type": "address"
        }
      ],
      "stateMutability": "view",
      "type": "function"
    },
    {
      "inputs": [],
      "name": "confirmations",
      "outputs": [
        {
          "internalType": "uint32",
          "name": "",
          "type": "uint32"
        }
      ],
      "stateMutability": "view",
      "type": "function"
    },
    {
      "inputs": [],
      "name": "getLastRequestId",
      "outputs": [
        {
          "internalType": "uint32",
          "name": "requestId",
          "type": "uint32"
        }
      ],
      "stateMutability": "view",
      "type": "function"
    },
    {
      "inputs": [],
      "name": "getRequestFee",
      "outputs": [
        {
          "internalType": "address",
          "name": "feeToken",
          "type": "address"
        },
        {
          "internalType": "uint256",
          "name": "requestFee",
          "type": "uint256"
        }
      ],
      "stateMutability": "view",
      "type": "function"
    },
    {
      "inputs": [
        {
          "internalType": "uint32",
          "name": "requestId",
          "type": "uint32"
        }
      ],
      "name": "isRequestComplete",
      "outputs": [
        {
          "internalType": "bool",
          "name": "isCompleted",
          "type": "bool"
        }
      ],
      "stateMutability": "view",
      "type": "function"
    },
    {
      "inputs": [],
      "name": "owner",
      "outputs": [
        {
          "internalType": "address",
          "name": "",
          "type": "address"
        }
      ],
      "stateMutability": "view",
      "type": "function"
    },
    {
      "inputs": [
        {
          "internalType": "uint32",
          "name": "requestId",
          "type": "uint32"
        }
      ],
      "name": "randomNumber",
      "outputs": [
        {
          "internalType": "uint256",
          "name": "randomNum",
          "type": "uint256"
        }
      ],
      "stateMutability": "nonpayable",
      "type": "function"
    },
    {
      "inputs": [],
      "name": "renounceOwnership",
      "outputs": [],
      "stateMutability": "nonpayable",
      "type": "function"
    },
    {
      "inputs": [],
      "name": "requestRandomNumber",
      "outputs": [
        {
          "internalType": "uint32",
          "name": "requestId",
          "type": "uint32"
        },
        {
          "internalType": "uint32",
          "name": "lockBlock",
          "type": "uint32"
        }
      ],
      "stateMutability": "nonpayable",
      "type": "function"
    },
    {
      "inputs": [
        {
          "internalType": "address",
          "name": "newOwner",
          "type": "address"
        }
      ],
      "name": "transferOwnership",
      "outputs": [],
      "stateMutability": "nonpayable",
      "type": "function"
    }
  ],
  "address": "0x4204c5a6962e65C3b3f61a078DD6Fe89Db02A578",
  "args": [],
  "solcInputHash": "0x86672b3d0e668f08da1b1a1e485621dcb824719488bb1aeb252af4f60a644b52",
  "bytecode": "0x60806040526001805463010000106001600160a01b03199091161763ffffffff60a01b1916600360a21b17905534801561003857600080fd5b50600061004c6001600160e01b0361009b16565b600080546001600160a01b0319166001600160a01b0383169081178255604051929350917f8be0079c531659141344cd1fd0a4f28419497f9722a3daafe3b4186f6b6457e0908290a35061009f565b3390565b6109c4806100ae6000396000f3fe608060405234801561001057600080fd5b506004361061009e5760003560e01c80638da5cb5b116100665780638da5cb5b1461015b5780639cf5d6071461017f5780639d2a5f9814610187578063d394f838146101bc578063f2fde38b146101c45761009e565b80630d37b537146100a357806319c2b4c3146100ce5780633a19b9bc146100ef578063715018a6146101265780638678a7b214610130575b600080fd5b6100ab6101ea565b604080516001600160a01b03909316835260208301919091528051918290030190f35b6100d66101f1565b6040805163ffffffff9092168252519081900360200190f35b6101126004803603602081101561010557600080fd5b503563ffffffff16610204565b604080519115158252519081900360200190f35b61012e610215565b005b6101386102c9565b6040805163ffffffff938416815291909216602082015281519081900390910190f35b61016361032d565b604080516001600160a01b039092168252519081900360200190f35b6100d661033c565b6101aa6004803603602081101561019d57600080fd5b503563ffffffff1661034f565b60408051918252519081900360200190f35b6101636103ef565b61012e600480360360208110156101da57600080fd5b50356001600160a01b03166103fe565b6000809091565b600154600160c01b900463ffffffff1690565b600061020f82610508565b92915050565b61021d610566565b6000546001600160a01b0390811691161461027f576040805162461bcd60e51b815260206004820181905260248201527f4f776e61626c653a2063616c6c6572206973206e6f7420746865206f776e6572604482015290519081900360640190fd5b600080546040516001600160a01b03909116907f8be0079c531659141344cd1fd0a4f28419497f9722a3daafe3b4186f6b6457e0908390a3600080546001600160a01b0319169055565b6000806102d461056a565b63ffffffff818116600081815260036020526040808220805463ffffffff19164395861617905551939550919350339290917fcf635b20f2defc1e71326dc4f0b616fa676e29a5bae87da19fcaddc550b33f0391a39091565b6000546001600160a01b031690565b600154600160a01b900463ffffffff1681565b600061035a82610508565b6103ab576040805162461bcd60e51b815260206004820152601f60248201527f524e47426c6f636b686173682f726571756573742d696e636f6d706c65746500604482015290519081900360640190fd5b63ffffffff82166000908152600260205260409020546103d6576103d6826103d16105c1565b610847565b5063ffffffff1660009081526002602052604090205490565b6001546001600160a01b031681565b610406610566565b6000546001600160a01b03908116911614610468576040805162461bcd60e51b815260206004820181905260248201527f4f776e61626c653a2063616c6c6572206973206e6f7420746865206f776e6572604482015290519081900360640190fd5b6001600160a01b0381166104ad5760405162461bcd60e51b81526004018080602001828103825260268152602001806109436026913960400191505060405180910390fd5b600080546040516001600160a01b03808516939216917f8be0079c531659141344cd1fd0a4f28419497f9722a3daafe3b4186f6b6457e091a3600080546001600160a01b0319166001600160a01b0392909216919091179055565b60015463ffffffff8281166000908152600360205260408120549092600160a01b90048216908216011643118015610553575060015463ffffffff600160c01b909104811690831611155b801561020f57505063ffffffff16151590565b3390565b600180546000916105949161058f9163ffffffff600160c01b90920482169161089816565b6108f9565b6001805463ffffffff60c01b1916600160c01b63ffffffff93841681029190911791829055900416919050565b60015460408051633073c6eb60e01b815263ffffffff600160a01b8404164303600482015290516000926060926001600160a01b0390911691633073c6eb916024808201928792909190829003018186803b15801561061f57600080fd5b505afa158015610633573d6000803e3d6000fd5b505050506040513d6000823e601f3d908101601f19168201604052602081101561065c57600080fd5b810190808051604051939291908464010000000082111561067c57600080fd5b90830190602082018581111561069157600080fd5b82516401000000008111828201881017156106ab57600080fd5b82525081516020918201929091019080838360005b838110156106d85781810151838201526020016106c0565b50505050905090810190601f1680156107055780820380516001836020036101000a031916815260200191505b50604052505050905060006002826040518082805190602001908083835b602083106107425780518252601f199092019160209182019101610723565b51815160209384036101000a60001901801990921691161790526040519190930194509192505080830381855afa158015610781573d6000803e3d6000fd5b5050506040513d602081101561079657600080fd5b5051604080516020818101849052825180830382018152918301928390528151939450600093600293918291908401908083835b602083106107e95780518252601f1990920191602091820191016107ca565b51815160209384036101000a60001901801990921691161790526040519190930194509192505080830381855afa158015610828573d6000803e3d6000fd5b5050506040513d602081101561083d57600080fd5b5051935050505090565b63ffffffff8216600081815260026020908152604091829020849055815184815291517f629394f18de7accce1179c28c39be59503a57cbcf45980a2772743b041b362719281900390910190a25050565b6000828201838110156108f2576040805162461bcd60e51b815260206004820152601b60248201527f536166654d6174683a206164646974696f6e206f766572666c6f770000000000604482015290519081900360640190fd5b9392505050565b6000640100000000821061093e5760405162461bcd60e51b81526004018080602001828103825260268152602001806109696026913960400191505060405180910390fd5b509056fe4f776e61626c653a206e6577206f776e657220697320746865207a65726f206164647265737353616665436173743a2076616c756520646f65736e27742066697420696e2033322062697473a26469706673582212203b15b3a0e57680a95a5ad614a5a99b4f181ed3d02e136fa0dc0be3aac1823b1164736f6c63430006060033",
  "devdoc": {
    "methods": {
      "isRequestComplete(uint32)": {
        "details": "For time-delayed requests, this function is used to check/confirm completion",
        "params": {
          "requestId": "The ID of the request used to get the results of the RNG service"
        },
        "returns": {
          "isCompleted": "True if the request has completed and a random number is available, false otherwise"
        }
      },
      "owner()": {
        "details": "Returns the address of the current owner."
      },
      "randomNumber(uint32)": {
        "params": {
          "requestId": "The ID of the request used to get the results of the RNG service"
        },
        "returns": {
          "randomNum": "The random number"
        }
      },
      "renounceOwnership()": {
        "details": "Leaves the contract without owner. It will not be possible to call `onlyOwner` functions anymore. Can only be called by the current owner.     * NOTE: Renouncing ownership will leave the contract without an owner, thereby removing any functionality that is only available to the owner."
      },
      "requestRandomNumber()": {
        "details": "Some services will complete the request immediately, others may have a time-delaySome services require payment in the form of a token, such as $LINK for Chainlink VRF",
        "returns": {
          "lockBlock": "The block number at which the RNG service will start generating time-delayed randomness.  The calling contract should \"lock\" all activity until the result is available via the `requestId`",
          "requestId": "The ID of the request used to get the results of the RNG service"
        }
      },
      "transferOwnership(address)": {
        "details": "Transfers ownership of the contract to a new account (`newOwner`). Can only be called by the current owner."
      }
    }
  },
  "userdoc": {
    "methods": {
      "constructor": "Public constructor",
      "getLastRequestId()": {
        "notice": "Gets the last request id used by the RNG service"
      },
      "getRequestFee()": {
        "notice": "Gets the Fee for making a Request against an RNG service"
      },
      "isRequestComplete(uint32)": {
        "notice": "Checks if the request for randomness from the 3rd-party service has completed"
      },
      "randomNumber(uint32)": {
        "notice": "Gets the random number produced by the 3rd-party service"
      },
      "requestRandomNumber()": {
        "notice": "Sends a request for a random number to the 3rd-party service"
      }
    }
  },
  "storageLayout": {
    "storage": [
      {
        "astId": 437,
        "contract": "contracts/RNGBlockhash.sol:RNGBlockhash",
        "label": "_owner",
        "offset": 0,
        "slot": "0",
        "type": "t_address"
      },
      {
        "astId": 1868,
        "contract": "contracts/RNGBlockhash.sol:RNGBlockhash",
        "label": "blockHeaderContract",
        "offset": 0,
        "slot": "1",
        "type": "t_contract(IBlockHeaderPrecompiledContract)1846"
      },
      {
        "astId": 1871,
        "contract": "contracts/RNGBlockhash.sol:RNGBlockhash",
        "label": "confirmations",
        "offset": 20,
        "slot": "1",
        "type": "t_uint32"
      },
      {
        "astId": 1873,
        "contract": "contracts/RNGBlockhash.sol:RNGBlockhash",
        "label": "requestCount",
        "offset": 24,
        "slot": "1",
        "type": "t_uint32"
      },
      {
        "astId": 1877,
        "contract": "contracts/RNGBlockhash.sol:RNGBlockhash",
        "label": "randomNumbers",
        "offset": 0,
        "slot": "2",
        "type": "t_mapping(t_uint32,t_uint256)"
      },
      {
        "astId": 1881,
        "contract": "contracts/RNGBlockhash.sol:RNGBlockhash",
        "label": "requestLockBlock",
        "offset": 0,
        "slot": "3",
        "type": "t_mapping(t_uint32,t_uint32)"
      }
    ],
    "types": {
      "t_address": {
        "encoding": "inplace",
        "label": "address",
        "numberOfBytes": "20"
      },
      "t_contract(IBlockHeaderPrecompiledContract)1846": {
        "encoding": "inplace",
        "label": "contract IBlockHeaderPrecompiledContract",
        "numberOfBytes": "20"
      },
      "t_mapping(t_uint32,t_uint256)": {
        "encoding": "mapping",
        "key": "t_uint32",
        "label": "mapping(uint32 => uint256)",
        "numberOfBytes": "32",
        "value": "t_uint256"
      },
      "t_mapping(t_uint32,t_uint32)": {
        "encoding": "mapping",
        "key": "t_uint32",
        "label": "mapping(uint32 => uint32)",
        "numberOfBytes": "32",
        "value": "t_uint32"
      },
      "t_uint256": {
        "encoding": "inplace",
        "label": "uint256",
        "numberOfBytes": "32"
      },
      "t_uint32": {
        "encoding": "inplace",
        "label": "uint32",
        "numberOfBytes": "4"
      }
    }
  },
  "gasEstimates": {
    "creation": {
      "codeDepositCost": "500000",
      "executionCost": "infinite",
      "totalCost": "infinite"
    },
    "external": {
      "blockHeaderContract()": "1103",
      "confirmations()": "1052",
      "getLastRequestId()": "1053",
      "getRequestFee()": "250",
      "isRequestComplete(uint32)": "2971",
      "owner()": "1037",
      "randomNumber(uint32)": "infinite",
      "renounceOwnership()": "24271",
      "requestRandomNumber()": "infinite",
      "transferOwnership(address)": "infinite"
    },
    "internal": {
      "_getNextRequestId()": "infinite",
      "_getSeed()": "infinite",
      "_isRequestComplete(uint32)": "2655",
      "_storeResult(uint32,uint256)": "infinite"
    }
  }
}